:0100000000FF
:0100010000FE
:0100020001FC
:0100030000FC
:0100040001FA
:0100050000FA
:0100060000F9
:0100070000F8
:0100080000F7
:0100090000F6
:01000A0001F4
:01000B0001F3
:01000C0000F3
:01000D0000F2
:01000E0001F0
:01000F0001EF
:0100100001EE
:0100110001ED
:0100120001EC
:0100130000EC
:0100140000EB
:0100150001E9
:0100160000E9
:0100170000E8
:0100180001E6
:0100190000E6
:01001A0000E5
:01001B0000E4
:01001C0001E2
:01001D0001E1
:01001E0000E1
:01001F0001DF
:0100200000DF
:0100210000DE
:0100220001DC
:0100230001DB
:0100240001DA
:0100250000DA
:0100260000D9
:0100270001D7
:0100280000D7
:0100290000D6
:01002A0001D4
:01002B0000D4
:01002C0000D3
:01002D0000D2
:01002E0000D1
:01002F0000D0
:0100300000CF
:0100310000CE
:0100320001CC
:0100330000CC
:0100340000CB
:0100350001C9
:0100360001C8
:0100370000C8
:0100380001C6
:0100390001C5
:01003A0000C5
:01003B0001C3
:01003C0000C3
:01003D0001C1
:01003E0000C1
:01003F0001BF
:0100400001BE
:0100410000BE
:0100420001BC
:0100430001BB
:0100440000BB
:0100450001B9
:0100460001B8
:0100470000B8
:0100480001B6
:0100490001B5
:01004A0000B5
:01004B0001B3
:01004C0001B2
:01004D0001B1
:01004E0000B1
:01004F0000B0
:0100500000AF
:0100510001AD
:0100520000AD
:0100530001AB
:0100540001AA
:0100550001A9
:0100560001A8
:0100570000A8
:0100580000A7
:0100590001A5
:01005A0000A5
:01005B0000A4
:01005C0001A2
:01005D0000A2
:01005E0001A0
:01005F0000A0
:01006000019E
:01006100019D
:01006200019C
:01006300019B
:01006400009B
:010065000199
:010066000099
:010067000098
:010068000097
:010069000195
:01006A000194
:01006B000193
:01006C000192
:01006D000092
:01006E000190
:01006F000090
:01007000018E
:01007100018D
:01007200008D
:01007300018B
:01007400018A
:010075000189
:010076000089
:010077000187
:010078000087
:010079000086
:01007A000184
:01007B000084
:01007C000182
:01007D000082
:01007E000081
:01007F00017F
:01008000007F
:01008100017D
:01008200007D
:01008300007C
:01008400017A
:01008500007A
:010086000079
:010087000177
:010088000077
:010089000175
:01008A000075
:01008B000074
:01008C000172
:01008D000072
:01008E000170
:01008F00016F
:01009000006F
:01009100016D
:01009200016C
:01009300006C
:01009400016A
:010095000169
:010096000069
:010097000068
:010098000166
:010099000066
:01009A000065
:01009B000064
:01009C000162
:01009D000062
:01009E000061
:01009F00015F
:0100A000005F
:0100A100005E
:0100A200005D
:0100A300015B
:0100A400005B
:0100A5000159
:0100A6000059
:0100A7000157
:0100A8000057
:0100A9000056
:0100AA000055
:0100AB000153
:0100AC000053
:0100AD000052
:0100AE000150
:0100AF00014F
:0100B000004F
:0100B100014D
:0100B200004D
:0100B300004C
:0100B400014A
:0100B500004A
:0100B6000049
:0100B7000048
:0100B8000146
:0100B9000145
:0100BA000045
:0100BB000044
:0100BC000142
:0100BD000042
:0100BE000140
:0100BF000040
:00000001FF
