:0100000000FF
:0100010001FD
:0100020000FD
:0100030000FC
:0100040001FA
:0100050000FA
:0100060001F8
:0100070001F7
:0100080000F7
:0100090000F6
:01000A0000F5
:01000B0000F4
:01000C0000F3
:01000D0001F1
:01000E0000F1
:01000F0000F0
:0100100000EF
:0100110001ED
:0100120001EC
:0100130001EB
:0100140001EA
:0100150001E9
:0100160000E9
:0100170001E7
:0100180001E6
:0100190001E5
:01001A0001E4
:01001B0001E3
:01001C0001E2
:01001D0000E2
:01001E0001E0
:01001F0000E0
:0100200000DF
:0100210001DD
:0100220000DD
:0100230000DC
:0100240000DB
:0100250000DA
:0100260001D8
:0100270000D8
:0100280001D6
:0100290001D5
:01002A0001D4
:01002B0001D3
:01002C0000D3
:01002D0000D2
:01002E0001D0
:01002F0000D0
:0100300001CE
:0100310000CE
:0100320001CC
:0100330000CC
:0100340000CB
:0100350001C9
:0100360000C9
:0100370001C7
:0100380001C6
:0100390001C5
:01003A0000C5
:01003B0001C3
:01003C0000C3
:01003D0001C1
:01003E0000C1
:01003F0001BF
:0100400001BE
:0100410001BD
:0100420001BC
:0100430001BB
:0100440000BB
:0100450001B9
:0100460001B8
:0100470000B8
:0100480000B7
:0100490000B6
:01004A0000B5
:01004B0001B3
:01004C0001B2
:01004D0001B1
:01004E0000B1
:01004F0000B0
:0100500000AF
:0100510000AE
:0100520000AD
:0100530000AC
:0100540000AB
:0100550000AA
:0100560001A8
:0100570000A8
:0100580000A7
:0100590000A6
:01005A0000A5
:01005B0001A3
:01005C0001A2
:01005D0000A2
:01005E0001A0
:01005F0000A0
:01006000009F
:01006100019D
:01006200009D
:01006300019B
:01006400019A
:01006500009A
:010066000099
:010067000098
:010068000097
:010069000195
:01006A000095
:01006B000193
:01006C000093
:01006D000092
:01006E000091
:01006F00018F
:01007000018E
:01007100018D
:01007200018C
:01007300008C
:01007400018A
:01007500008A
:010076000089
:010077000187
:010078000186
:010079000086
:01007A000184
:01007B000084
:01007C000083
:01007D000082
:01007E000180
:01007F00017F
:01008000007F
:01008100007E
:01008200007D
:01008300007C
:01008400017A
:01008500007A
:010086000079
:010087000177
:010088000176
:010089000076
:01008A000174
:01008B000074
:01008C000073
:01008D000072
:01008E000170
:01008F000070
:01009000006F
:01009100016D
:01009200006D
:01009300006C
:01009400016A
:010095000169
:010096000168
:010097000167
:010098000166
:010099000165
:01009A000065
:01009B000163
:01009C000063
:01009D000161
:01009E000061
:01009F00015F
:0100A000015E
:0100A100005E
:0100A200005D
:0100A300005C
:0100A400005B
:0100A500005A
:0100A6000059
:0100A7000058
:0100A8000156
:0100A9000056
:0100AA000055
:0100AB000054
:0100AC000053
:0100AD000151
:0100AE000150
:0100AF000050
:0100B000014E
:0100B100004E
:0100B200014C
:0100B300014B
:0100B400014A
:0100B5000149
:0100B6000049
:0100B7000147
:0100B8000047
:0100B9000046
:0100BA000045
:0100BB000143
:0100BC000142
:0100BD000141
:0100BE000140
:0100BF000040
:00000001FF
